:06000000021316021E5F50
:03000B000219CD0A
:03001300021E6367
:03001B0002198C3B
:03002300021E7743
:03002B00021E783A
:03003300021E7931
:03003B00021E7A28
:03004300021E7B1F
:03004B00021E7C16
:03005300021E7D0D
:03005B00021A087E
:03006300021E7EFC
:1001000090009FEFF0E49000A7F090009FE0900037
:10011000011209FE120B519000A0F0A3EFF0E47F52
:1001200001FEFDFC90009FE0F9F81209668F198E20
:10013000188D178C16AF01121B7E9000A5EEF0A350
:10014000EFF0120A514005120B658005E49000A201
:10015000F09000A2E0640160030202B290009FE010
:10016000FF2425120A66E0C394FA74809480500636
:10017000120A63E004F0120B28FCE4FBFAF9F8C35E
:10018000120942600302029F900000E09000A4F078
:10019000121E6AEF6030E49000A2F0A3F0120A9EF3
:1001A0005018120A63E0C394017480948040069052
:1001B00000A2E004F0120B4A80E3120AD14007903B
:1001C00000A4E0240FF090009FE02425120A66129C
:1001D0000B85500302029FE49000A2F0121E47EF2D
:1001E000705E9000A3F0120A9E502290009FE06F74
:1001F0006016121E359000A3E02425120A66E0C3A3
:100200009F4005120B658005120B4A80D9121E6AA9
:10021000EF3395E04F70639000A2E0705DA3F012A1
:100220000A9E505690009FE06F6010121E3590009D
:10023000A3120AB8E0C39F4002803C120B4A80DF41
:10024000121E6AEF3395E04F70309000A4F09000DA
:10025000A3F0120A9E5018120A63E0C3940274803D
:10026000948040069000A4E004F0120B4A80E390D2
:1002700000A4120AD44003120B659000A2E06401AE
:100280007002D21FE5154519FFE5144518FEE51368
:100290004517FDE51245168F158E148D13F5129036
:1002A000009FE0FF243D120A14E4F0A3120AAB02FF
:1002B00004D590009FE0FF121D469000A0E0FCA333
:1002C000E0FDD3120A454008120AB5E004F0800BA5
:1002D0009000B2E004F0120AB5E4F0120B5BC3E444
:1002E0009FFBE49EFAC3ED9BEA120A474066D312D5
:1002F0000A525060120AF2F583E4120AAB120A7C29
:1003000060030204299000A0E0FEA3E0FF90009F9C
:10031000E0900031120A98EE8FF0120851121E0A76
:10032000120A334009120A6EE475F0018019121E98
:100330000AC3E49FFFE49EFE120A3340030204292D
:10034000120A6E74FFF5F0120851120A29E4F0A3A4
:10035000F0020429120B5BC3E49FFFE4120A4F4032
:10036000030203E4120AF2120AA7F583E4F0743DD3
:100370002FF582E43400F583E0FD901ED1E493FF75
:10038000ED8FF084E5F0704B901ED293FEEF8EF06F
:10039000A4FFC3ED120B4090009FE04010120AF73B
:1003A000F583E4F0D22090006104F08026120A73F5
:1003B000C083C082E0FEA3E0FF90004EE0A2E713FE
:1003C000FD3395E0FCC3EF9DFFEE9CD082D083F01F
:1003D000A3EFF090009FE0FF9000ABE06F704A74D5
:1003E000FFF08045120B5BD3120A52403C90009FF5
:1003F000E0120AF7120A7C7030120B6C120AA7F591
:1004000083E064207023120B6CF583E4F090004EBF
:10041000E0A2E713A2E713FD3395E0FC75F002EFCD
:10042000120A76EC8DF0120851120B284D4E4F70C7
:10043000030204E19000A5E0FCA3E0FDAE04780215
:10044000CEA2E713CE13D8F8FFC3ED9FFFEC120A3C
:100450004F40030204DA120AC3E004F0121E4F9068
:1004600000A4EFF0E49000A3F0120A9E5018120AC4
:1004700063E0C394017480948040069000A2E0047D
:10048000F0120B4A80E3120AD14008900000E0907D
:1004900000A4F090009FE0FB120AC7120B855003E6
:1004A00002052B745B2B120AC9E4F0AF19AE18AD2C
:1004B00017AC16120935E5155FFFE5145EFEE5136E
:1004C0005DFDE5125C8F158E148D13F51274252BCE
:1004D000F582E43400F583E4F022120AC3E014F05C
:1004E0002290009FE02425120A66120A7E7008906E
:1004F000009FE0FF1215C9E51A14FF90009FE06FFE
:1005000070299000B2E0C3951A4020E49000A3F057
:10051000120A9E500E120A63E06003120B65120B62
:100520004A80ED9000A2E07002C21F222010030258
:1005300007B5C390008BE0942C90008AE0940150A2
:10054000030207B5C210200E449000B3120979EFE0
:100550005408FFE4FEFDFCEF70339000B3120979FC
:10056000E4FFEE5410FEE4FDFCEE6013301410B214
:10057000A5B202C214E490008AF0A3F00207B5EC21
:100580004D4E4F60030207B5D2140207B530040385
:100590000206919000B3120979E4FFFEED5404FDC8
:1005A000E4FCED604030113FE490008AF0A3F0C21B
:1005B00011300702C2079000B8E004F0D39409405C
:1005C00002E4F09000B8E07005121D1A8019D20BF9
:1005D000D218C216C217121C9AC2949000B8E0FF3B
:1005E000121BF98002D2119000B3120979EF541056
:1005F000FFE4FEFDFCEF6044301243E490008AF01B
:10060000A3F0C212300702C2079000B8E070057470
:1006100009F080069000B8E014F09000B8E0700592
:10062000121D1A8019D20BD217C218C216121C9AA8
:10063000C2859000B8E0FF121BF98002D212900030
:10064000B3120979E4FFEE5401FEE4FDFCEE603FD5
:1006500030133EE490008AF0A3F0C213300702C2C8
:10066000079000B8E07F05B405027F009000B8EF66
:10067000F07005121D1A800DD20BD216C218C217C7
:10068000121C9AC2A19000B8E0FF121BF98002D29E
:10069000139000B3120979E4FFEE5410FEE4FDFC60
:1006A000EE602D30142CE490008AF0A3F0C214B256
:1006B00002300207121C9AC2A58017D2A5200B1285
:1006C00020040FE4FFFE121907E4FF121BF9800259
:1006D000D2149000B3120979EF5402FFE4FEFDFC3E
:1006E000EF6066E490008AF0A3F0200908D2099038
:1006F000009AF0A3F0C390009BE094D090009AE0A1
:1007000094074045300942300C3FB2043004249035
:10071000009212099D000927C0E490009CF0A3F00C
:10072000C20B9000B8F0C218C216C217121C9AC2AF
:100730000A800DD200E4FFFE121907E4FF121BF934
:10074000E490009AF0A3F0C20C9000B3120979EF84
:100750005408FFE4FEFDFCEF6043301540E49000D8
:100760008AF0A3F0C215200E13FF121907E4FF123E
:100770001BF9D20EC206C20DD2008021300B083008
:1007800004028003300705121C3D8011D20790003F
:100790008412099D0002BF20C204121C9A9000B36B
:1007A000120979EF5402FFE4FEFDFCEF70073009F7
:1007B00004C209D20C9000B3120979EF5408FFE487
:1007C000FEFDFCEF7002D215120EFD120DF30216A3
:1007D00049BB010689828A83E0225002E722BBFEE0
:1007E00002E32289828A83E49322EF8DF0A4A8F0A9
:1007F000CF8CF0A428CE8DF0A42EFE22BC000BBE20
:100800000029EF8DF084FFADF022E4CCF875F008FC
:10081000EF2FFFEE33FEEC33FCEE9DEC984005FC31
:10082000EE9DFE0FD5F0E9E4CEFD22EDF8F5F0EEF9
:100830008420D21CFEADF075F008EF2FFFED33FDE4
:100840004007985006D5F0F222C398FD0FD5F0EA84
:1008500022C5F0F8A3E028F0C5F0F8E58215827013
:10086000021583E038F02275F008758200EF2FFF43
:10087000EE33FECD33CDCC33CCC58233C5829BED78
:100880009AEC99E58298400CF582EE9BFEED9AFD7C
:10089000EC99FC0FD5F0D6E4CEFBE4CDFAE4CCF92C
:1008A000A88222B800C1B90059BA002DEC8BF0849F
:1008B000CFCECDFCE5F0CBF97818EF2FFFEE33FE6D
:1008C000ED33FDEC33FCEB33FB10D703994004EB25
:1008D00099FB0FD8E5E4F9FA227818EF2FFFEE33F1
:1008E000FEED33FDEC33FCC933C910D7059BE99A03
:1008F0004007EC9BFCE99AF90FD8E0E4C9FAE4CC94
:10090000FB2275F010EF2FFFEE33FEED33FDCC33FD
:10091000CCC833C810D7079BEC9AE899400AED9BE6
:10092000FDEC9AFCE899F80FD5F0DAE4CDFBE4CCC5
:10093000FAE4C8F922CFF4CFCEF4CECDF4CDCCF486
:10094000CC22EB9FF5F0EA9E42F0E99D42F0E89C54
:1009500045F022E8600FECC313FCED13FDEE13FE2F
:10096000EF13FFD8F122E8600FEFC333FFEE33FE41
:10097000ED33FDEC33FCD8F122E0FCA3E0FDA3E075
:10098000FEA3E0FF22E0F8A3E0F9A3E0FAA3E0FB76
:1009900022ECF0A3EDF0A3EEF0A3EFF022A8828505
:1009A00083F0D083D0821209B41209B41209B412B0
:1009B00009B4E473E493A3C583C5F0C583C8C582B5
:1009C000C8F0A3C583C5F0C583C8C582C822A425C5
:1009D00082F582E5F03583F58322F8E0FBA3A3E0FE
:1009E000F925F0F0E582158270021583E0FA38F0FF
:1009F00022EBF0A3EAF0A3E9F022E090004FFF75AC
:100A0000F0021209CEE0FCA3E0FDEF90001975F0B2
:100A1000020209CEF582E43400F583E4F0745B2F22
:100A2000F582E43400F583E4F0900031EF75F002D4
:100A30000209CE90009FE075F0029000311209CEBD
:100A4000E0FCA3E0C39FEE6480F8EC648098229EF3
:100A5000FEC39000A1E09FEE6480F89000A0E064E7
:100A600080982274252FF582E43400F583229000CB
:100A70009FE0FF75F0029000010209CEF583E4F0DB
:100A8000FFFEFDFCAB15AA14A913A812C30209426C
:100A90009000A0E0FD90004F75F0020209CE90009A
:100AA000A3E0FFC3951A22F583E004F0740D2FF53F
:100AB00082E434002290009FE0242BF582E434008D
:100AC000F5832290009FE0245BF582E43400F583F7
:100AD000229000A2E0C3940374809480227D0A12C5
:100AE00007FCAD037C001207EA9000A8E0FD90002F
:100AF000012290009FE0FF243DF582E4340022E0D3
:100B0000FCA3E0FD75F002EF90004F1209CEECF06F
:100B1000A3EDF0227E009000ACE0FCA3E0FD120704
:100B2000EA8EE78FE67F0222E5155519FFE5145599
:100B300018FEE5135517FDE512551622A4FFE0C374
:100B40009FE5F06480F8748098229000A3E004F0A0
:100B500022E0FEA3E0C39DFFEE9C2290004EE0FF4A
:100B60003395E0FE229000A27401F02290009FE0F5
:100B7000FF240DF582E434002290004EE0FB339513
:100B8000E0FAFEEB22E0FF9000A4E0FEEFC39E221D
:100B90009FEE6480F8EA6480982290009EE0FF90C7
:100BA00000AAE02290009EEFF09000B0120AD4401C
:100BB0003EE4F0900061E0702B90009FF090009F69
:100BC000E0C3951A501EE0FF120A95E0FCA3E0FD79
:100BD00075F002EF120A76ECF0A3EDF090009FE0C2
:100BE00004F080D9121A43C220E4900061F02290F0
:100BF00000AAE004F0120B9AB50708121D7FE490DA
:100C000000ABF0120B9AD39F5003020CD5E4900076
:100C10009FF090009FE0C3951A507A1209FA120BC8
:100C200051AD07FC900061E0702E120B797802C381
:100C300033CE33CED8F9FFD3ED120A454046E49BBC
:100C4000FFE49AFEEF7802C333CE33CED8F9FFC368
:100C5000ED120A45502E803D120B797803C333CE36
:100C600033CED8F9FFD3ED120A454018E49BFFE4D8
:100C70009AFEEF7803C333CE33CED8F9FFC3ED121B
:100C80000A45401190009FE0FF120FF990009FE08D
:100C900004F0020C1290009FE0B51A069000ABE041
:100CA00004F090009EE0FD75F0089000AA120B3C45
:100CB0004023E4F0C21F9000B0E004F0ED75F004B2
:100CC0009000AB120B3C400DE49000B0F0121C7B86
:100CD000121A43C22022E4F509F511F510F50FF5BB
:100CE0000E121E705003020DDF121B4F8F0D8E0C63
:100CF0008D0B8C0AE4F508E508C3951A504CAF0D2E
:100D0000AE0CAD0BAC0A78011209538F0D8E0C8D11
:100D10000B8C0A30D730E47F01FEFDFC74132508EC
:100D2000F582E43400F583E0F9F8120966E5114F25
:100D3000FFE5104EFEE50F4DFDE50E4C8F118E10B8
:100D40008D0FF50E0509050880ADE509C394024035
:100D500015D21FE50994034005121E738008121E68
:100D600047EF6002C21F201F28E4FFFEFDFCAB110D
:100D7000AA10A90FA80EC3120942600C90004CE4FF
:100D800075F001120851801CE490004CF0A3F08033
:100D900013900049E475F001120851E4F511F510C3
:100DA000F50FF50E121DFFC390004DE09F90004C13
:100DB000E09E400A121E73E490004CF0A3F0D39022
:100DC000004AE0942C900049E09401401D121E73EB
:100DD0009000617401F0E4900049F0A3F0800B9062
:100DE0001E8FE4740193FF120BA4AF11AE10AD0F70
:100DF000AC0E223007457F207EBF7D027C00900034
:100E000084120985D3120942502EC390009CE094AD
:100E1000024028B293E4F0A3F02093177B607AEAB3
:100E2000F9F89000841209791208A3EF04FF121B4D
:100E3000F98008121DA18003121C3D200403020E3C
:100E4000C87FC07E277D097C00900092120985D35F
:100E50001209425070C200C390009CE09402402BE3
:100E6000B286E4F0A3F07F607EEAFDFC900092126F
:100E70000985D31209424013E47B607AEAF9F890BD
:100E800000921209791208A3121BF9E47F607EEA2E
:100E9000FDFC900092120985C3120942502A208657
:100EA00015E47B607AEAF9F8900092120979120849
:100EB000A3121BF98003121DA19000B87405F0D293
:100EC0000BD20A8003121C3D300D1BC390008DE035
:100ED00094E890008CE09403400CC20ED206C20D40
:100EE000121C9A121DA1D3900083E09432900082CC
:100EF000E09400400743CF10E4F0A3F022C3900039
:100F000089E094C8900088E094005003020FF82014
:100F10000003020FF8A287B39205A297B3920320B1
:100F20000503300317D3900091E094F4900090E013
:100F300094014008C20FC201E4020FF5300566308B
:100F40000F63C20FC201E4900088F0A3F0300706DF
:100F5000C207C208C2939000B8E004F0D3940940DD
:100F600002E4F09000B8E0B40119200E16D20EC2CF
:100F7000067F2C7E01121907D218C216C217D202A0
:100F8000121C9A9000B8E07005121D1A800DD20B49
:100F9000D218C216C217121C9AC2949000B8E0FF71
:100FA000121BF9800C300509D201E4900090F0A3E7
:100FB000F0300338300135C20FC201E4900088F0F0
:100FC000A3F0200818300E15D20890008CF0A3F082
:100FD00090008412099D0002BF20D2072230081819
:100FE000C208121C3D7F647E000217BB300309D289
:100FF0000FE4900090F0A3F0229000A0EFF0F9121F
:1010000009FA120B519000A1F0A3EFF0AF01121BEF
:101010007EAD07AC069000A1E0FEA3E0FFD39DECFF
:101020006480F8EE6480985014C3E49DFBE49CFA5D
:10103000C3EF9BEA6480F8EE648098500E9000A0A5
:10104000E0FF120A0B120AFF0210DDECA2E713FE0A
:10105000ED13FF9000A1E0FAA3E0FBD3120B905038
:1010600016ECA2E713FEED13FFC3E49FFFE49EFE20
:10107000C3EB120B905023120A90E0FAA3E0FBEAB4
:10108000C313FEEB13FFC3EB9FFBEA9EFAED120ABC
:101090000BE0C313FEA3E0138032120A90E0FAA320
:1010A000E0FBAE027803CEC313CE13D8F9FFC3EB37
:1010B0009FFBEA9EFA75F002ED9000191209CEE04E
:1010C000FEA3E07803CEC313CE13D8F92BFFEA3E7C
:1010D000FE9000A0E0120A95EEF0A3EFF09000A0C1
:1010E0001209FAECF0A3EDF02253DC7FEF24FE604E
:1010F0003424FE604E24FC606724F8607D24F07088
:1011000003021198241F60030211B4ED5403FFE59C
:10111000D454FC4FF5D4AE04ED7802CEC313CE13F5
:10112000D8F9F5D522ED540325E025E0FFE5D454A8
:10113000F34FF5D4AE04ED7802CEC313CE13D8F935
:10114000F5D622ED5403C454F0FFE5D454CF4FF547
:10115000D4AE04ED7802CEC313CE13D8F9F5D7225E
:10116000ED5403FFE5DC54FC4FF5DCAE04ED7802F2
:10117000CEC313CE13D8F9F5DD22ED540325E025B7
:10118000E0FFE5DC54F34FF5DCAE04ED7802CEC3AE
:1011900013CE13D8F9F5DE22ED5403C454F0FFE565
:1011A000DC54CF4FF5DCAE04ED7802CEC313CE1382
:1011B000D8F9F5DF224400960000000042008800C4
:1011C0000042009000004400840002BF2042009AC8
:1011D00000004400920000000042008E0000420027
:1011E0008A000042008C000042009C000042008205
:1011F0000000C116C118C117C109C108C18CC104C2
:10120000C102C10EC106C10BC10AC180C101C10F1B
:10121000C107C10D4100B8004100B700C105C103BD
:10122000C110C191C192C193C194C1954400B30052
:1012300000000054006300000000000000000000F7
:1012400000000000000000000000C11AC11BC1190D
:101250004100770041007B0041007F0041007D009C
:10126000410081004100620041007C0041006100BA
:101270004100B00000900096120979EF2401FFE4CC
:101280003EFEE43DFDE43CFC900096120991900086
:1012900088E475F001120851900084120979EF2456
:1012A000FFFFEE34FFFEED34FFFDEC34FFFC900059
:1012B00084120991900092120979EF24FFFFEE3415
:1012C000FFFEED34FFFDEC34FFFC9000921209911B
:1012D00090009AE475F00112085190008EE475F0C8
:1012E0000112085190008AE475F001120851900033
:1012F0008CE475F00112085190009CE475F0011225
:101300000851900090E475F001120851900082E4B9
:1013100075F00102085178FFE4F6D8FD9000007FD7
:10132000007E03E4F0A3DFFCDEFA75812402136B78
:10133000021A7EE493A3F8E493A34003F68001F23B
:1013400008DFF48029E493A3F85407240CC8C333BE
:10135000C4540F4420C8834004F456800146F6DF8D
:10136000E4800B01020408102040809011B5E47E57
:10137000019360BCA3FF543F30E509541FFEE49382
:10138000A360010ECF54C025E060A840B8E493A349
:10139000FAE493A3F8E493A3C8C582C8CAC583CA74
:1013A000F0A3C8C582C8CAC583CADFE9DEE780BE2C
:1013B000C2AF75FEC1AFFFD2AFEF5430FD7C0070FD
:1013C000047918801CED64104C7004790C8012EDC7
:1013D00064204C700479068008ED64304C7002790A
:1013E00002E924FA601724FA601F24F46027241607
:1013F000702E9000A0E4F0A37496F080259000A0D9
:101400007401F0A374C2F080199000A07403F0A3DB
:101410007484F0800D9000A07407F0A304F08002A3
:10142000E4F99000A0E07002A3E0600C9000A074CA
:10143000FFF5F012085180EA227B027D087F01123D
:1014400014C07B017D807F011214C07B017D80E48C
:10145000FF1214C07B027D40E4FF1214C07B027DAA
:10146000047F021214C07B027D087F021214C07B2D
:10147000027D407F021214C07B027D807F02121425
:10148000C07B027D027F011214C07B027D017F05BB
:101490001214C07B027D027F051214C07B027D10F6
:1014A0007F011214C07B027D20E4FF1214C07B0276
:1014B0007D027F021214C07B027D207F020214C0D5
:1014C000EF701DEB7006EDF4529A529BEBB40107DE
:1014D000EDF4529AED429BEB64027068ED429A2261
:1014E000EF6401701DEB7006EDF452915292EBB473
:1014F0000107EDF45291ED4292EB64027046ED4229
:101500009122EF6402701DEB7006EDF452A152A21D
:10151000EBB40107EDF452A1ED42A2EB640270249A
:10152000ED42A122EF6405701BEB7006EDF452D979
:1015300052DAEBB40107EDF452D9ED42DAEBB40222
:1015400003ED42D92275FE8543FF20D2AFC220E4CD
:101550009000B1F090004BF01218BBE4FF121B1D7D
:10156000EF2401FDE433FC7E0B7FB81207FC9000F2
:10157000ACEEF0A3EFF0E4FF121D5B120B14121B94
:101580001DEFC454F0FEC006E4FF121B1DD0E02F77
:10159000F5E17F03121B1DE5E254804FF5E27F0465
:1015A000121B1DEF6008E5E254804480F5E27F01E4
:1015B000121B1D8FE3121A4343A910900013E0443D
:1015C00080F5E8121742021C7B9000A8EFF0121D74
:1015D000CC9000A9EFF012163E9000ADE025E0FFA0
:1015E0009000ACE033FE7C00120ADD120A0EE0FA35
:1015F000A3E0C39FEA9E50099000A9E0603F1480D9
:101600002D12163E9000ACE0FEA3E0FF7C007D07AB
:101610001207EA120ADD120A2DE0FAA3E0D39FEACC
:101620009E401A9000A9E0FF647E6011EF04FF74F1
:10163000432DF582E43400F583EFF0D220229000B0
:10164000A8E0FF121D5BEFFB22E490009EF0C39028
:10165000008FE0946490008EE09400406A300406AD
:10166000200A03D38001C3921EA21EE433C454F0A7
:10167000FF9000B8E04FFFA202E433C43354E04FC0
:10168000FFA20EE433C4333354C04FFFA206E43349
:10169000FEC433333354804F9000B7F090009E74F3
:1016A00003F0201BFD7B017A0079B77D01121CD06D
:1016B0007F057E00121BAA90009EE014F0E070E20D
:1016C000E490008EF0A3F022C21D9000B1E0120A57
:1016D0000BE5E5F0A3E5E4F09000B1E004F0E0C331
:1016E000951A400BE4F090004BE04480F08002D269
:1016F0001D7F02121B1DEFC454F0F5E19000B1E014
:10170000FF121D5B120B14121B1DEFC454F0FEC020
:1017100006E4FF121B1DD0E02FF5E19000B1E0FFC1
:10172000121DCCE5E254804FF5E29000B1E02413A5
:10173000F582E43400F583E04480F5E8301D02D200
:10174000EE22901ED3E49390009EF0121BD4E490FE
:10175000009FF090009FE0FFC3951A5021E0FE1219
:101760000A0BE0FCA3E0FD75F002EE120A76ECF045
:10177000A3EDF01215C990009FE004F080D5900011
:101780009EE0FF14F0EF70C3121D7F121E3F900009
:101790009EEFF0121BD4E490009FF090009FE0FFBA
:1017A000C3951A500B120FF990009FE004F080EBE4
:1017B00090009EE0FF14F0EF70D92290009EEEF0B2
:1017C000A3EFF0E4FFFE121907D29390009EE0FE13
:1017D000A3E0FF121BAAD28690009EE0FEA3E0FFCA
:1017E000121BAAD2A590009EE0FEA3E0FF121BAA46
:1017F000D2A190009EE0FEA3E0FF121BAAD285902A
:10180000009EE0FEA3E0FF121BAAD29490009EE08F
:10181000FEA3E0FF021BAA900077E0604D900081DC
:10182000E0FF7015C29290007875F0011209DA128B
:1018300007D190007FF0E08011EFD394085010A200
:101840001C929290007FE0C313F013921C8002D28E
:1018500092900081E0C3940A5004E004F022E490E6
:101860000081F0900077E014F022C21BC28C22E4C9
:10187000F509F50A750E1A750D11750C04F50BF5C1
:1018800009AF0EAE0DAD0CAC0B78011209538F0EE3
:101890008E0D8D0C8C0B30D7177413250AF582E44E
:1018A0003400F583E509F0050AE50AC394065007FC
:1018B0000509E509B41FCA850A1A22901E8574011C
:1018C00093900000F0901E9F74019390004EF012D0
:1018D000186FE4F508E508C3951A5023E50875F07C
:1018E00008A424A5F582E4341EF583E493FF744331
:1018F0002508F582E43400F583EFF0050880D6E48E
:1019000090004CF0A3F0229000A0EEF0A3EFF0C204
:1019100094121BAAC2859000A0E0FEA3E0FF121B58
:10192000AAC2A19000A0E0FEA3E0FF121BAAC2A5DC
:101930009000A0E0FEA3E0FF121BAAC2869000A0C8
:10194000E0FEA3E0FF121BAAC2932290007E74FF68
:10195000F090008074CCF07D027F047E01121CE9BF
:101960007D017F407E01121CE9538EFE5389FB539B
:1019700089FC43890190007EE0F58C900080E0F5C1
:101980008AD2B9C28DC28CD2A9D2AF22C0E0C0F037
:10199000C083C082C0D075D000C000C001C002C0EA
:1019A00003C004C005C006C007758B18758DFC12F6
:1019B0001275D007D006D005D004D003D002D001D4
:1019C000D000D0D0D082D083D0F0D0E032C0E0C000
:1019D000F0C083C082C0D075D000C000C001C0027A
:1019E000C003C004C005C006C007121C1CD007D02D
:1019F00006D005D004D003D002D001D000D0D0D082
:101A000082D083D0F0D0E032C0E0C0F0C083C0828A
:101A1000C0D075D000C000C001C002C003C004C067
:101A200005C006C0071216C8D007D006D005D004DE
:101A3000D003D002D001D000D0D0D082D083D0F05B
:101A4000D0E032E4FFEFC3951A501A120A63E4F0B3
:101A5000743D2F120A14E4F0A3F0742B2F120ABB6A
:101A6000E4F00F80E0E4F515F514F513F51290009D
:101A7000AB74FFF0E49000AEF0A3F0C22022C2AF3E
:101A8000121D91D2AF7FF47E01121BAA121AB51259
:101A90001545121E6712194B7FDC7E05121BAA7FAB
:101AA00001121DB0121D0243CF10201003121CB6EC
:101AB00012052C80F57D3B7C017F01121AE97D9E89
:101AC0007C007F011210E97D9E7C007F041210E9EA
:101AD0007D017F05121DD9E4FD7F3F121DE6E4FD67
:101AE000FF121D307F01021E15ED1D70011CEFC499
:101AF000333354C0FFE5D1543F4FF5D1ED5403C407
:101B0000333354C0FFE5D4543F4FF5D4AE04AF0592
:101B1000EF7802CEC313CE13D8F9F5D322EF1460B9
:101B20001214601414601814601A2404701E901E9D
:101B3000A18008901EA28003901EA3E493FF22E4DC
:101B4000FF021DCC901E93740193FF227F0022E4BC
:101B50009000B2F090009EF090009EE0FFC3951AB6
:101B60005013120FF990009EE0FF12010090009EAA
:101B7000E004F080E3AF15AE14AD13AC1222AD0754
:101B8000ED75F008A424A7F582E4341EF583E493F0
:101B9000FEED75F008A424A8F582E4341EF583E474
:101BA000937C002400FFEC3EFE229000A2EEF0A306
:101BB000EFF090009612099D000000009000A2E056
:101BC000FEA3E0FFE4FCFD900096120985C3120914
:101BD0004240E922E4FE90004BE0547FF0D2EE90C8
:101BE000004BE0548070111213B043CF100EEEC3BF
:101BF00094647480948040E722EF901ED493FF1386
:101C000092A2EFA2E192A3A2E292D9A2E392D8A279
:101C1000E49291A2E592A6A2E692A72290007EE02D
:101C2000258CF58C900080E0258AF58A90007CE078
:101C300004F0E030E006301B0312181722D200C275
:101C40000EC207C204C202E49000B8F0C20BC20A7E
:101C5000C218C216C217121C9A021DA1EF14600E00
:101C600014601224027013AF05AE04021D6DAF059F
:101C7000AE04021DBEAF05121E2022E4FFEFC39585
:101C80001A5016120A0AE0FCA3E0FD900001120AA5
:101C90002CECF0A3EDF00F80E422201802D2942067
:101CA0001702D285201602D2A1200202D2A5D28626
:101CB000200E02D2932290004BE0FF30E711D210A9
:101CC000547FF0120CD69000B3120991121E6D22AF
:101CD000D21B9000781209F1900077EDF0E49000AB
:101CE00081F090007CF0D28C22AB07AA06A905EB0C
:101CF0007002EAF4600BEAFFAD03AE01AB0612140A
:101D0000C022E4FFFE121907D20ED206D20DE490D3
:101D1000008CF0A3F07F08021BF9C20BC218C21698
:101D2000C217E4FFFE1219079000B8E0FF021BF98A
:101D3000EF600543A902800353A9FDED700453B978
:101D4000FD2243B90222121B7EEF7803C333CE3348
:101D5000CED8F9FF7C007D0A0207FCEF75F008A4DD
:101D600024A4F582E4341EF583E493FF225389CF43
:101D70008F8BEF7805CEC313CE13D8F9F58D22E4FF
:101D8000FFEFC3951A5009120A0A120AFF0F80F1D9
:101D9000227D187CFC7F01121C5CD28ED2ABC2BBB0
:101DA00022C2A2C2A3C2D9C2D8C291C2A6C2A722CD
:101DB00075FEC1EF700453FF7F2243FF80225389D9
:101DC000CF438910AD078D8BEEF58D2274432FF52F
:101DD00082E43400F583E0FF22EDB40104EF42D247
:101DE00022EFF452D222EDB40104EF42D122EFF4FB
:101DF00052D122121439121C9A121E76021E2B90F6
:101E00001E89E493FE740193FF22901E8DE493FEDD
:101E1000740193FF22EF600443D2802253D27F22C9
:101E20005389CF4389208F8B8F8D22E4FF121E5759
:101E3000E4FF021DB0900000E075F00384FF2290E3
:101E40001E87740193FF22901E81740193FF2290DC
:101E50000000E0C313FF22E5CF54F84FF5CF225323
:101E600088FD325388F732021DF37F0122D2EE2221
:101E7000A22022D2202222323232323232323200B8
:101E80000000000000000A000A0BB800C80064004F
:101E90000200000001000400000001FFFFFFFF003E
:101EA0003202150408120500FF021504081205008D
:101EB000FF02150408120500FF02150408120500B0
:101EC000FF02150408120500FF02150408120500A0
:0E1ED000FF0A0A203F065B4F666D7D077F6F9D
:00000001FF
