:060000000213C9021EBC40
:03000B00021A1FB7
:03001300021EC00A
:03001B000219DEE9
:03002300021ED4E6
:03002B00021ED5DD
:03003300021ED6D4
:03003B00021ED7CB
:03004300021ED8C2
:03004B00021ED9B9
:03005300021EDAB0
:03005B00021A5A2C
:03006300021EDB9F
:1001000090009FEFF0E49000A7F090009FE0900037
:10011000011209FE120B519000A0F0A3EFF0E47F52
:1001200001FEFDFC90009FE0F9F81209668F198E20
:10013000188D178C16AF01121BD09000A5EEF0A3FE
:10014000EFF0120A514005120B658005E49000A201
:10015000F09000A2E0640160030202B290009FE010
:10016000FF2425120A66E0C394FA74809480500636
:10017000120A63E004F0120B28FCE4FBFAF9F8C35E
:10018000120942600302029F900000E09000A4F078
:10019000121EC7EF6030E49000A2F0A3F0120A9E96
:1001A0005018120A63E0C394017480948040069052
:1001B00000A2E004F0120B4A80E3120AD14007903B
:1001C00000A4E0240FF090009FE02425120A66129C
:1001D0000B85500302029FE49000A2F0121EA4EFD0
:1001E000705E9000A3F0120A9E502290009FE06F74
:1001F0006016121E929000A3E02425120A66E0C346
:100200009F4005120B658005120B4A80D9121EC74C
:10021000EF3395E04F70639000A2E0705DA3F012A1
:100220000A9E505690009FE06F6010121E92900040
:10023000A3120AB8E0C39F4002803C120B4A80DF41
:10024000121EC7EF3395E04F70309000A4F090007D
:10025000A3F0120A9E5018120A63E0C3940274803D
:10026000948040069000A4E004F0120B4A80E390D2
:1002700000A4120AD44003120B659000A2E06401AE
:100280007002D21FE5154519FFE5144518FEE51368
:100290004517FDE51245168F158E148D13F5129036
:1002A000009FE0FF243D120A14E4F0A3120AAB02FF
:1002B00004D590009FE0FF121DB19000A0E0FCA3C8
:1002C000E0FDD3120A454008120AB5E004F0800BA5
:1002D0009000B2E004F0120AB5E4F0120B5BC3E444
:1002E0009FFBE49EFAC3ED9BEA120A474066D312D5
:1002F0000A525060120AF2F583E4120AAB120A7C29
:1003000060030204299000A0E0FEA3E0FF90009F9C
:10031000E0900031120A98EE8FF0120851121E6719
:10032000120A334009120A6EE475F0018019121E98
:1003300067C3E49FFFE49EFE120A334003020429D0
:10034000120A6E74FFF5F0120851120A29E4F0A3A4
:10035000F0020429120B5BC3E49FFFE4120A4F4032
:10036000030203E4120AF2120AA7F583E4F0743DD3
:100370002FF582E43400F583E0FD901F2EE493FF17
:10038000ED8FF084E5F0704B901F2F93FEEF8EF011
:10039000A4FFC3ED120B4090009FE04010120AF73B
:1003A000F583E4F0D22090006104F08026120A73F5
:1003B000C083C082E0FEA3E0FF90004EE0A2E713FE
:1003C000FD3395E0FCC3EF9DFFEE9CD082D083F01F
:1003D000A3EFF090009FE0FF9000ABE06F704A74D5
:1003E000FFF08045120B5BD3120A52403C90009FF5
:1003F000E0120AF7120A7C7030120B6C120AA7F591
:1004000083E064207023120B6CF583E4F090004EBF
:10041000E0A2E713A2E713FD3395E0FC75F002EFCD
:10042000120A76EC8DF0120851120B284D4E4F70C7
:10043000030204E19000A5E0FCA3E0FDAE04780215
:10044000CEA2E713CE13D8F8FFC3ED9FFFEC120A3C
:100450004F40030204DA120AC3E004F0121EAC900B
:1004600000A4EFF0E49000A3F0120A9E5018120AC4
:1004700063E0C394017480948040069000A2E0047D
:10048000F0120B4A80E3120AD14008900000E0907D
:1004900000A4F090009FE0FB120AC7120B855003E6
:1004A00002052B745B2B120AC9E4F0AF19AE18AD2C
:1004B00017AC16120935E5155FFFE5145EFEE5136E
:1004C0005DFDE5125C8F158E148D13F51274252BCE
:1004D000F582E43400F583E4F022120AC3E014F05C
:1004E0002290009FE02425120A66120A7E7008906E
:1004F000009FE0FF12167CE51A14FF90009FE06F4A
:1005000070299000B2E0C3951A4020E49000A3F057
:10051000120A9E500E120A63E06003120B65120B62
:100520004A80ED9000A2E07002C21F222010030258
:1005300007B5C390008BE0942C90008AE0940150A2
:10054000030207B5C210200E449000B3120979EFE0
:100550005408FFE4FEFDFCEF70339000B3120979FC
:10056000E4FFEE5410FEE4FDFCEE6013301410B214
:10057000A5B202C214E490008AF0A3F00207B5EC21
:100580004D4E4F60030207B5D2140207B530040385
:100590000206919000B3120979E4FFFEED5404FDC8
:1005A000E4FCED604030113FE490008AF0A3F0C21B
:1005B00011300702C2079000B8E004F0D39409405C
:1005C00002E4F09000B8E07005121D858019D20B8E
:1005D000D218C216C217121CECC2949000B8E0FFE9
:1005E000121C4B8002D2119000B3120979EF541003
:1005F000FFE4FEFDFCEF6044301243E490008AF01B
:10060000A3F0C212300702C2079000B8E070057470
:1006100009F080069000B8E014F09000B8E0700592
:10062000121D858019D20BD217C218C216121CECEB
:10063000C2859000B8E0FF121C4B8002D2129000DD
:10064000B3120979E4FFEE5401FEE4FDFCEE603FD5
:1006500030133EE490008AF0A3F0C213300702C2C8
:10066000079000B8E07F05B405027F009000B8EF66
:10067000F07005121D85800DD20BD216C218C2175C
:10068000121CECC2A19000B8E0FF121C4B8002D2F9
:10069000139000B3120979E4FFEE5410FEE4FDFC60
:1006A000EE602D30142CE490008AF0A3F0C214B256
:1006B00002300207121CECC2A58017D2A5200B1233
:1006C00020040FE4FFFE1218B2E4FF121C4B80025C
:1006D000D2149000B3120979EF5402FFE4FEFDFC3E
:1006E000EF6066E490008AF0A3F0200908D2099038
:1006F000009AF0A3F0C390009BE094D090009AE0A1
:1007000094074045300942300C3FB2043004249035
:10071000009212099D000927C0E490009CF0A3F00C
:10072000C20B9000B8F0C218C216C217121CECC25D
:100730000A800DD200E4FFFE1218B2E4FF121C4B37
:10074000E490009AF0A3F0C20C9000B3120979EF84
:100750005408FFE4FEFDFCEF6043301540E49000D8
:100760008AF0A3F0C215200E13FF1218B2E4FF1294
:100770001C4BD20EC206C20DD2008021300B0830B5
:1007800004028003300705121C8F8011D2079000ED
:100790008412099D0002BF20C204121CEC9000B319
:1007A000120979EF5402FFE4FEFDFCEF70073009F7
:1007B00004C209D20C9000B3120979EF5408FFE487
:1007C000FEFDFCEF7002D215120EFD120DF30212A7
:1007D00075BB010689828A83E0225002E722BBFEB4
:1007E00002E32289828A83E49322EF8DF0A4A8F0A9
:1007F000CF8CF0A428CE8DF0A42EFE22BC000BBE20
:100800000029EF8DF084FFADF022E4CCF875F008FC
:10081000EF2FFFEE33FEEC33FCEE9DEC984005FC31
:10082000EE9DFE0FD5F0E9E4CEFD22EDF8F5F0EEF9
:100830008420D21CFEADF075F008EF2FFFED33FDE4
:100840004007985006D5F0F222C398FD0FD5F0EA84
:1008500022C5F0F8A3E028F0C5F0F8E58215827013
:10086000021583E038F02275F008758200EF2FFF43
:10087000EE33FECD33CDCC33CCC58233C5829BED78
:100880009AEC99E58298400CF582EE9BFEED9AFD7C
:10089000EC99FC0FD5F0D6E4CEFBE4CDFAE4CCF92C
:1008A000A88222B800C1B90059BA002DEC8BF0849F
:1008B000CFCECDFCE5F0CBF97818EF2FFFEE33FE6D
:1008C000ED33FDEC33FCEB33FB10D703994004EB25
:1008D00099FB0FD8E5E4F9FA227818EF2FFFEE33F1
:1008E000FEED33FDEC33FCC933C910D7059BE99A03
:1008F0004007EC9BFCE99AF90FD8E0E4C9FAE4CC94
:10090000FB2275F010EF2FFFEE33FEED33FDCC33FD
:10091000CCC833C810D7079BEC9AE899400AED9BE6
:10092000FDEC9AFCE899F80FD5F0DAE4CDFBE4CCC5
:10093000FAE4C8F922CFF4CFCEF4CECDF4CDCCF486
:10094000CC22EB9FF5F0EA9E42F0E99D42F0E89C54
:1009500045F022E8600FECC313FCED13FDEE13FE2F
:10096000EF13FFD8F122E8600FEFC333FFEE33FE41
:10097000ED33FDEC33FCD8F122E0FCA3E0FDA3E075
:10098000FEA3E0FF22E0F8A3E0F9A3E0FAA3E0FB76
:1009900022ECF0A3EDF0A3EEF0A3EFF022A8828505
:1009A00083F0D083D0821209B41209B41209B412B0
:1009B00009B4E473E493A3C583C5F0C583C8C582B5
:1009C000C8F0A3C583C5F0C583C8C582C822A425C5
:1009D00082F582E5F03583F58322F8E0FBA3A3E0FE
:1009E000F925F0F0E582158270021583E0FA38F0FF
:1009F00022EBF0A3EAF0A3E9F022E090004FFF75AC
:100A0000F0021209CEE0FCA3E0FDEF90001975F0B2
:100A1000020209CEF582E43400F583E4F0745B2F22
:100A2000F582E43400F583E4F0900031EF75F002D4
:100A30000209CE90009FE075F0029000311209CEBD
:100A4000E0FCA3E0C39FEE6480F8EC648098229EF3
:100A5000FEC39000A1E09FEE6480F89000A0E064E7
:100A600080982274252FF582E43400F583229000CB
:100A70009FE0FF75F0029000010209CEF583E4F0DB
:100A8000FFFEFDFCAB15AA14A913A812C30209426C
:100A90009000A0E0FD90004F75F0020209CE90009A
:100AA000A3E0FFC3951A22F583E004F0740D2FF53F
:100AB00082E434002290009FE0242BF582E434008D
:100AC000F5832290009FE0245BF582E43400F583F7
:100AD000229000A2E0C3940374809480227D0A12C5
:100AE00007FCAD037C001207EA9000A8E0FD90002F
:100AF000012290009FE0FF243DF582E4340022E0D3
:100B0000FCA3E0FD75F002EF90004F1209CEECF06F
:100B1000A3EDF0227E009000ACE0FCA3E0FD120704
:100B2000EA8EE78FE67F0222E5155519FFE5145599
:100B300018FEE5135517FDE512551622A4FFE0C374
:100B40009FE5F06480F8748098229000A3E004F0A0
:100B500022E0FEA3E0C39DFFEE9C2290004EE0FF4A
:100B60003395E0FE229000A27401F02290009FE0F5
:100B7000FF240DF582E434002290004EE0FB339513
:100B8000E0FAFEEB22E0FF9000A4E0FEEFC39E221D
:100B90009FEE6480F8EA6480982290009EE0FF90C7
:100BA00000AAE02290009EEFF09000B0120AD4401C
:100BB0003EE4F0900061E0702B90009FF090009F69
:100BC000E0C3951A501EE0FF120A95E0FCA3E0FD79
:100BD00075F002EF120A76ECF0A3EDF090009FE0C2
:100BE00004F080D9121A95C220E4900061F022909E
:100BF00000AAE004F0120B9AB50708121DEAE4906F
:100C000000ABF0120B9AD39F5003020CD5E4900076
:100C10009FF090009FE0C3951A507A1209FA120BC8
:100C200051AD07FC900061E0702E120B797802C381
:100C300033CE33CED8F9FFD3ED120A454046E49BBC
:100C4000FFE49AFEEF7802C333CE33CED8F9FFC368
:100C5000ED120A45502E803D120B797803C333CE36
:100C600033CED8F9FFD3ED120A454018E49BFFE4D8
:100C70009AFEEF7803C333CE33CED8F9FFC3ED121B
:100C80000A45401190009FE0FF120FF990009FE08D
:100C900004F0020C1290009FE0B51A069000ABE041
:100CA00004F090009EE0FD75F0089000AA120B3C45
:100CB0004023E4F0C21F9000B0E004F0ED75F004B2
:100CC0009000AB120B3C400DE49000B0F0121CCD34
:100CD000121A95C22022E4F509F511F510F50FF569
:100CE0000E121ECD5003020DDF121BA18F0D8E0CB4
:100CF0008D0B8C0AE4F508E508C3951A504CAF0D2E
:100D0000AE0CAD0BAC0A78011209538F0D8E0C8D11
:100D10000B8C0A30D730E47F01FEFDFC74132508EC
:100D2000F582E43400F583E0F9F8120966E5114F25
:100D3000FFE5104EFEE50F4DFDE50E4C8F118E10B8
:100D40008D0FF50E0509050880ADE509C394024035
:100D500015D21FE50994034005121ED08008121E0B
:100D6000A4EF6002C21F201F28E4FFFEFDFCAB11B0
:100D7000AA10A90FA80EC3120942600C90004CE4FF
:100D800075F001120851801CE490004CF0A3F08033
:100D900013900049E475F001120851E4F511F510C3
:100DA000F50FF50E121E5CC390004DE09F90004CB5
:100DB000E09E400A121ED0E490004CF0A3F0D390C5
:100DC000004AE0942C900049E09401401D121ED08E
:100DD0009000617401F0E4900049F0A3F0800B9062
:100DE0001EECE4740193FF120BA4AF11AE10AD0F13
:100DF000AC0E223007457F207EBF7D027C00900034
:100E000084120985D3120942502EC390009CE094AD
:100E1000024028B293E4F0A3F02093177B607AEAB3
:100E2000F9F89000841209791208A3EF04FF121C4C
:100E30004B8008121E0C8003121C8F200403020E2C
:100E4000C87FC07E277D097C00900092120985D35F
:100E50001209425070C200C390009CE09402402BE3
:100E6000B286E4F0A3F07F607EEAFDFC900092126F
:100E70000985D31209424013E47B607AEAF9F890BD
:100E800000921209791208A3121C4BE47F607EEADB
:100E9000FDFC900092120985C3120942502A208657
:100EA00015E47B607AEAF9F8900092120979120849
:100EB000A3121C4B8003121E0C9000B87405F0D2D4
:100EC0000BD20A8003121C8F300D1BC390008DE0E3
:100ED00094E890008CE09403400CC20ED206C20D40
:100EE000121CEC121E0CD3900083E094329000820E
:100EF000E09400400743CF10E4F0A3F022C3900039
:100F000089E094C8900088E094005003020FF82014
:100F10000003020FF8A287B39205A297B3920320B1
:100F20000503300317D3900091E094F4900090E013
:100F300094014008C20FC201E4020FF5300566308B
:100F40000F63C20FC201E4900088F0A3F0300706DF
:100F5000C207C208C2939000B8E004F0D3940940DD
:100F600002E4F09000B8E0B40119200E16D20EC2CF
:100F7000067F647E001218B2D218C216C217D202BF
:100F8000121CEC9000B8E07005121D85800DD20B8C
:100F9000D218C216C217121CECC2949000B8E0FF1F
:100FA000121C4B800C300509D201E4900090F0A394
:100FB000F0300338300135C20FC201E4900088F0F0
:100FC000A3F0200818300E15D20890008CF0A3F082
:100FD00090008412099D0002BF20D2072230081819
:100FE000C208121C8F7F647E000217EF300309D203
:100FF0000FE4900090F0A3F0229000A0EFF0F9121F
:1010000009FA120B519000A1F0A3EFF0AF01121BEF
:10101000D0AD07AC069000A1E0FEA3E0FFD39DECAD
:101020006480F8EE6480985014C3E49DFBE49CFA5D
:10103000C3EF9BEA6480F8EE648098500E9000A0A5
:10104000E0FF120A0B120AFF0210DDECA2E713FE0A
:10105000ED13FF9000A1E0FAA3E0FBD3120B905038
:1010600016ECA2E713FEED13FFC3E49FFFE49EFE20
:10107000C3EB120B905023120A90E0FAA3E0FBEAB4
:10108000C313FEEB13FFC3EB9FFBEA9EFAED120ABC
:101090000BE0C313FEA3E0138032120A90E0FAA320
:1010A000E0FBAE027803CEC313CE13D8F9FFC3EB37
:1010B0009FFBEA9EFA75F002ED9000191209CEE04E
:1010C000FEA3E07803CEC313CE13D8F92BFFEA3E7C
:1010D000FE9000A0E0120A95EEF0A3EFF09000A0C1
:1010E0001209FAECF0A3EDF02253DC7FEF24FE604E
:1010F0003424FE604E24FC606724F8607D24F07088
:1011000003021198241F60030211B4ED5403FFE59C
:10111000D454FC4FF5D4AE04ED7802CEC313CE13F5
:10112000D8F9F5D522ED540325E025E0FFE5D454A8
:10113000F34FF5D4AE04ED7802CEC313CE13D8F935
:10114000F5D622ED5403C454F0FFE5D454CF4FF547
:10115000D4AE04ED7802CEC313CE13D8F9F5D7225E
:10116000ED5403FFE5DC54FC4FF5DCAE04ED7802F2
:10117000CEC313CE13D8F9F5DD22ED540325E025B7
:10118000E0FFE5DC54F34FF5DCAE04ED7802CEC3AE
:1011900013CE13D8F9F5DE22ED5403C454F0FFE565
:1011A000DC54CF4FF5DCAE04ED7802CEC313CE1382
:1011B000D8F9F5DF224400960000000042008800C4
:1011C0000042009000004400840002BF2042009AC8
:1011D00000004400920000000042008E0000420027
:1011E0008A000042008C000042009C000042008205
:1011F0000000C116C118C117C109C108C18CC104C2
:10120000C102C10EC106C10BC10AC180C101C10F1B
:10121000C107C10D4100B8004100B700C105C103BD
:10122000C110C191C192C193C194C1954400B30052
:1012300000000054006300000000000000000000F7
:1012400000000000000000000000C11AC11BC1190D
:101250004100770041007B0041007F0041007D009C
:10126000410081004100620041007C0041006100BA
:101270004100B00000E490009EF0C390008FE09425
:101280006490008EE094005003021327300406207F
:101290000A03D38001C3921EA21EE433C454F0FF9C
:1012A0009000B8E04FFFA202E433C43354E04FFF94
:1012B000A20EE433C4333354C04FFFA206E433FE1E
:1012C000C433333354804F9000B7F090009E7403C2
:1012D000F090008EE0FFA3E090009FCFF0A3EFF02E
:1012E000301B2290009FE0FEA3E0FFC390008FE040
:1012F0009FFF90008EE09EFEC3EF940AEE940040A4
:10130000DFC28CC21B7B017A0079B77D01121D22DE
:101310007F057E00121BFC90009EE014F0E070B18F
:10132000E490008EF0A3F022900096120979EF2449
:1013300001FFE43EFEE43DFDE43CFC900096120912
:1013400091900088E475F001120851900084120910
:1013500079EF24FFFFEE34FFFEED34FFFDEC34FFA8
:10136000FC900084120991900092120979EF24FFF9
:10137000FFEE34FFFEED34FFFDEC34FFFC900092F5
:1013800012099190009AE475F00112085190008EB4
:10139000E475F00112085190008AE475F00112081A
:1013A0005190008CE475F00112085190009CE47596
:1013B000F001120851900090E475F001120851906C
:1013C0000082E475F00102085178FFE4F6D8FD9040
:1013D00000007F007E03E4F0A3DFFCDEFA758124C9
:1013E00002141E021AD0E493A3F8E493A34003F678
:1013F0008001F208DFF48029E493A3F85407240C59
:10140000C8C333C4540F4420C8834004F456800139
:1014100046F6DFE4800B01020408102040809011A2
:10142000B5E47E019360BCA3FF543F30E509541F2F
:10143000FEE493A360010ECF54C025E060A840B83D
:10144000E493A3FAE493A3F8E493A3C8C582C8CABB
:10145000C583CAF0A3C8C582C8CAC583CADFE9DE8E
:10146000E780BEC2AF75FEC1AFFFD2AFEF5430FD13
:101470007C0070047918801CED64104C7004790CA9
:101480008012ED64204C700479068008ED64304CC5
:1014900070027902E924FA601724FA601F24F460CC
:1014A000272416702E9000A0E4F0A37496F08025F7
:1014B0009000A07401F0A374C2F080199000A07491
:1014C00003F0A37484F0800D9000A07407F0A304CF
:1014D000F08002E4F99000A0E07002A3E0600C90BC
:1014E00000A074FFF5F012085180EA227B027D080B
:1014F0007F011215737B017D807F011215737B01C3
:101500007D80E4FF1215737B027D40E4FF121573AA
:101510007B027D047F021215737B027D087F02121D
:1015200015737B027D407F021215737B027D807FE5
:10153000021215737B027D027F011215737B027DFF
:10154000017F051215737B027D027F051215737BE7
:10155000027D107F011215737B027D20E4FF1215BE
:10156000737B027D027F021215737B027D207F0256
:10157000021573EF701DEB7006EDF4529A529BEB5F
:10158000B40107EDF4529AED429BEB64027068EDF2
:10159000429A22EF6401701DEB7006EDF4529152F5
:1015A00092EBB40107EDF45291ED4292EB640270BC
:1015B00046ED429122EF6402701DEB7006EDF4528D
:1015C000A152A2EBB40107EDF452A1ED42A2EB64EB
:1015D000027024ED42A122EF6405701BEB7006ED52
:1015E000F452D952DAEBB40107EDF452D9ED42DAF4
:1015F000EBB40203ED42D92275FE8543FF20D2AF42
:10160000C220E49000B1F090004BF0121951E4FFB9
:10161000121B6FEF2401FDE433FC7E0B7FB8120731
:10162000FC9000ACEEF0A3EFF0E4FF121DC6120B2D
:1016300014121B6FEFC454F0FEC006E4FF121B6FC0
:10164000D0E02FF5E17F03121B6FE5E254804FF5E8
:10165000E27F04121B6FEF6008E5E254804480F5DE
:10166000E27F01121B6F8FE3121A9543A9109000BD
:1016700013E04480F5E8121776021CCD9000A8EF25
:10168000F0121E299000A9EFF01216F19000ADE0C3
:1016900025E0FF9000ACE033FE7C00120ADD120A68
:1016A0000EE0FAA3E0C39FEA9E50099000A9E06013
:1016B0003F14802D1216F19000ACE0FEA3E0FF7CF9
:1016C000007D071207EA120ADD120A2DE0FAA3E0F4
:1016D000D39FEA9E401A9000A9E0FF647E6011EF5C
:1016E00004FF74432DF582E43400F583EFF0D2203B
:1016F000229000A8E0FF121DC6EFFB22C21D900041
:10170000B1E0120A0BE5E5F0A3E5E4F09000B1E0EA
:1017100004F0E0C3951A400BE4F090004BE04480E5
:10172000F08002D21D7F02121B6FEFC454F0F5E16E
:101730009000B1E0FF121DC6120B14121B6FEFC414
:1017400054F0FEC006E4FF121B6FD0E02FF5E190CD
:1017500000B1E0FF121E29E5E254804FF5E290004F
:10176000B1E02413F582E43400F583E04480F5E829
:10177000301D02D2EE22901F30E49390009EF012B2
:101780001C26E490009FF090009FE0FFC3951A5044
:1017900021E0FE120A0BE0FCA3E0FD75F002EE1260
:1017A0000A76ECF0A3EDF012167C90009FE004F0B6
:1017B00080D590009EE0FF14F0EF70C3121DEA1276
:1017C0001E9C90009EEFF0121C26E490009FF0906B
:1017D000009FE0FFC3951A500B120FF990009FE095
:1017E00004F080EB90009EE0FF14F0EF70D922909F
:1017F000009EEEF0A3EFF0E4FFFE1218B2D2939039
:10180000009EE0FEA3E0FF121BFC43CF10D28690A7
:10181000009EE0FEA3E0FF121BFC43CF10D2A59078
:10182000009EE0FEA3E0FF121BFC43CF10D2A1906C
:10183000009EE0FEA3E0FF121BFC43CF10D2859078
:10184000009EE0FEA3E0FF121BFC43CF10D2949059
:10185000009EE0FEA3E0FF021BFC900077E0604DDD
:10186000900081E0FF7015C29290007875F001122F
:1018700009DA1207D190007FF0E08011EFD39408CD
:101880005010A21C929290007FE0C313F013921CA0
:101890008002D292900081E0C3940A5004E004F0E8
:1018A00022E4900081F0900077E014F022C21BC285
:1018B0008C229000A0EEF0A3EFF0C294121BFC4328
:1018C000CF10C2859000A0E0FEA3E0FF121BFC43F6
:1018D000CF10C2A19000A0E0FEA3E0FF121BFC43CA
:1018E000CF10C2A59000A0E0FEA3E0FF121BFC43B6
:1018F000CF10C2869000A0E0FEA3E0FF121BFC43C5
:10190000CF10C29322E4F509F50A750E1A750D1170
:10191000750C04F50BF509AF0EAE0DAD0CAC0B78E4
:10192000011209538F0E8E0D8D0C8C0B30D717744E
:1019300013250AF582E43400F583E509F0050AE58C
:101940000AC3940650070509E509B41FCA850A1A97
:1019500022901EE2740193900000F0901EFC74012E
:101960009390004EF0121905E4F508E508C3951AA6
:101970005023E50875F008A42402F582E4341FF52D
:1019800083E493FF74432508F582E43400F583EF84
:10199000F0050880D6E490004CF0A3F02290007E81
:1019A00074FFF090008074CCF07D027F047E011201
:1019B0001D3B7D017F407E01121D3B538EFE5389EE
:1019C000FB5389FC43890190007EE0F58C900080F8
:1019D000E0F58AD2B9C28DC28CD2A9D2AF22C0E0C2
:1019E000C0F0C083C082C0D075D000C000C001C0AC
:1019F00002C003C004C005C006C007758B18758DF2
:101A0000FC121328D007D006D005D004D003D00292
:101A1000D001D000D0D0D082D083D0F0D0E032C07E
:101A2000E0C0F0C083C082C0D075D000C000C0014B
:101A3000C002C003C004C005C006C007121C6ED09F
:101A400007D006D005D004D003D002D001D000D0FA
:101A5000D0D082D083D0F0D0E032C0E0C0F0C083DC
:101A6000C082C0D075D000C000C001C002C003C099
:101A700004C005C006C0071216FCD007D006D0056A
:101A8000D004D003D002D001D000D0D0D082D083F7
:101A9000D0F0D0E032E4FFEFC3951A501A120A6377
:101AA000E4F0743D2F120A14E4F0A3F0742B2F120B
:101AB0000ABBE4F00F80E0E4F515F514F513F51218
:101AC0009000AB74FFF0E49000AEF0A3F0C22022CF
:101AD000C2AF121DFCD2AF7FF47E01121BFC121BA1
:101AE000071215F8121EC412199D7FDC7E05121B09
:101AF000FC7F01121D54121D6D43CF1020100312E4
:101B00001D0812052C80F57D3B7C017F01121B3BDB
:101B10007D9E7C007F011210E97D9E7C007F041277
:101B200010E97D017F05121E36E4FD7F3F121E4342
:101B3000E4FDFF121D9B7F01021E72ED1D70011C52
:101B4000EFC4333354C0FFE5D1543F4FF5D1ED54CA
:101B500003C4333354C0FFE5D4543F4FF5D4AE042F
:101B6000AF05EF7802CEC313CE13D8F9F5D322EF29
:101B700014601214601414601814601A2404701E87
:101B8000901EFE8008901EFF8003901F00E493FFCC
:101B900022E4FF021E29901EF0740193FF227F00B1
:101BA00022E49000B2F090009EF090009EE0FFC30F
:101BB000951A5013120FF990009EE0FF1201009049
:101BC000009EE004F080E3AF15AE14AD13AC12221A
:101BD000AD07ED75F008A42404F582E4341FF58305
:101BE000E493FEED75F008A42405F582E4341FF5B6
:101BF00083E4937C002400FFEC3EFE229000A2EEE2
:101C0000F0A3EFF090009612099D000000009000F4
:101C1000A2E0FEA3E0FFE4FCFD900096120985C35C
:101C200012094240E922E4FE90004BE0547FF0D2DA
:101C3000EE90004BE05480701112146343CF100EED
:101C4000EEC394647480948040E722EF901F319338
:101C5000FF1392A2EFA2E192A3A2E292D9A2E39291
:101C6000D8A2E49291A2E592A6A2E692A7229000C1
:101C70007EE0258CF58C900080E0258AF58A900026
:101C80007CE004F0E030E006301B0312185A22D248
:101C900000C20EC207C204C202E49000B8F0C20B38
:101CA000C20AC218C216C217121CEC021E0CEF1494
:101CB000600E14601224027013AF05AE04021DD82A
:101CC000AF05AE04021E1BAF05121E7D22E4FFEF1E
:101CD000C3951A5016120A0AE0FCA3E0FD90000119
:101CE000120A2CECF0A3EDF00F80E422201802D2AF
:101CF00094201702D285201602D2A1200202D2A57A
:101D0000D286200E02D2932290004BE0FF30E711E2
:101D1000D210547FF0120CD69000B3120991121E0B
:101D2000CA22D21B9000781209F1900077EDF0E4FE
:101D3000900081F090007CF0D28C22AB07AA06A91B
:101D400005EB7002EAF4600BEAFFAD03AE01AB06EF
:101D500012157322A2AF921EC2AF75FEC1EF7005BD
:101D600053FF7F800343FF80A21E92AF22E4FFFE59
:101D70001218B2D20ED206D20DE490008CF0A3F06D
:101D80007F08021C4BC20BC218C216C217E4FFFE2A
:101D90001218B29000B8E0FF021C4BEF600543A997
:101DA00002800353A9FDED700453B9FD2243B9022B
:101DB00022121BD0EF7803C333CE33CED8F9FF7C89
:101DC000007D0A0207FCEF75F008A42401F582E407
:101DD000341FF583E493FF225389CF8F8BEF78056F
:101DE000CEC313CE13D8F9F58D22E4FFEFC3951AB5
:101DF0005009120A0A120AFF0F80F1227D187CFC9A
:101E00007F01121CAED28ED2ABC2BB22C2A2C2A331
:101E1000C2D9C2D8C291C2A6C2A7225389CF4389D0
:101E200010AD078D8BEEF58D2274432FF582E434CF
:101E300000F583E0FF22EDB40104EF42D222EFF47B
:101E400052D222EDB40104EF42D122EFF452D1225A
:101E50001214EC121CEC121ED3021E88901EE6E433
:101E600093FE740193FF22901EEAE493FE740193A3
:101E7000FF22EF600443D2802253D27F225389CFC6
:101E80004389208F8B8F8D22E4FF121EB4E4FF0262
:101E90001D54900000E075F00384FF22901EE4744E
:101EA0000193FF22901EDE740193FF22900000E058
:101EB000C313FF22E5CF54F84FF5CF225388FD32EC
:101EC0005388F732021E507F0122D2EE22A2202236
:101ED000D22022223232323232323232000000003C
:101EE0000000000A000A0BB800C8006400020000ED
:101EF0000001000400000001FFFFFFFF0032021597
:101F00000408120500FF02150408120500FF02155F
:101F10000408120500FF02150408120500FF02154F
:101F20000408120500FF02150408120500FF0A0A42
:0B1F3000203F065B4F666D7D077F6F52
:00000001FF
